{
  "_format": "hh-sol-artifact-1",
  "contractName": "DepositFI",
  "sourceName": "contracts/StableCoin.sol",
  "abi": [
    {
      "inputs": [],
      "stateMutability": "nonpayable",
      "type": "constructor"
    },
    {
      "anonymous": false,
      "inputs": [
        {
          "indexed": false,
          "internalType": "address",
          "name": "previousAdmin",
          "type": "address"
        },
        {
          "indexed": false,
          "internalType": "address",
          "name": "newAdmin",
          "type": "address"
        }
      ],
      "name": "AdminChanged",
      "type": "event"
    },
    {
      "anonymous": false,
      "inputs": [
        {
          "indexed": true,
          "internalType": "address",
          "name": "owner",
          "type": "address"
        },
        {
          "indexed": true,
          "internalType": "address",
          "name": "spender",
          "type": "address"
        },
        {
          "indexed": false,
          "internalType": "uint256",
          "name": "value",
          "type": "uint256"
        }
      ],
      "name": "Approval",
      "type": "event"
    },
    {
      "anonymous": false,
      "inputs": [
        {
          "indexed": true,
          "internalType": "address",
          "name": "beacon",
          "type": "address"
        }
      ],
      "name": "BeaconUpgraded",
      "type": "event"
    },
    {
      "anonymous": false,
      "inputs": [
        {
          "indexed": false,
          "internalType": "uint8",
          "name": "version",
          "type": "uint8"
        }
      ],
      "name": "Initialized",
      "type": "event"
    },
    {
      "anonymous": false,
      "inputs": [
        {
          "indexed": true,
          "internalType": "address",
          "name": "previousOwner",
          "type": "address"
        },
        {
          "indexed": true,
          "internalType": "address",
          "name": "newOwner",
          "type": "address"
        }
      ],
      "name": "OwnershipTransferred",
      "type": "event"
    },
    {
      "anonymous": false,
      "inputs": [
        {
          "indexed": true,
          "internalType": "address",
          "name": "from",
          "type": "address"
        },
        {
          "indexed": true,
          "internalType": "address",
          "name": "to",
          "type": "address"
        },
        {
          "indexed": false,
          "internalType": "uint256",
          "name": "value",
          "type": "uint256"
        }
      ],
      "name": "Transfer",
      "type": "event"
    },
    {
      "anonymous": false,
      "inputs": [
        {
          "indexed": true,
          "internalType": "address",
          "name": "implementation",
          "type": "address"
        }
      ],
      "name": "Upgraded",
      "type": "event"
    },
    {
      "inputs": [
        {
          "internalType": "uint256",
          "name": "amount",
          "type": "uint256"
        },
        {
          "internalType": "uint256",
          "name": "timestamp",
          "type": "uint256"
        },
        {
          "internalType": "uint256",
          "name": "currentTime",
          "type": "uint256"
        },
        {
          "internalType": "int32",
          "name": "r",
          "type": "int32"
        }
      ],
      "name": "accrualInterest",
      "outputs": [
        {
          "internalType": "uint256",
          "name": "",
          "type": "uint256"
        }
      ],
      "stateMutability": "pure",
      "type": "function"
    },
    {
      "inputs": [
        {
          "internalType": "address",
          "name": "owner",
          "type": "address"
        },
        {
          "internalType": "address",
          "name": "spender",
          "type": "address"
        }
      ],
      "name": "allowance",
      "outputs": [
        {
          "internalType": "uint256",
          "name": "",
          "type": "uint256"
        }
      ],
      "stateMutability": "view",
      "type": "function"
    },
    {
      "inputs": [
        {
          "internalType": "address",
          "name": "spender",
          "type": "address"
        },
        {
          "internalType": "uint256",
          "name": "amount",
          "type": "uint256"
        }
      ],
      "name": "approve",
      "outputs": [
        {
          "internalType": "bool",
          "name": "",
          "type": "bool"
        }
      ],
      "stateMutability": "nonpayable",
      "type": "function"
    },
    {
      "inputs": [
        {
          "internalType": "address",
          "name": "account",
          "type": "address"
        }
      ],
      "name": "balanceOf",
      "outputs": [
        {
          "internalType": "uint256",
          "name": "",
          "type": "uint256"
        }
      ],
      "stateMutability": "view",
      "type": "function"
    },
    {
      "inputs": [
        {
          "internalType": "uint256",
          "name": "amount",
          "type": "uint256"
        },
        {
          "internalType": "uint256",
          "name": "timestamp",
          "type": "uint256"
        },
        {
          "internalType": "uint256",
          "name": "currentTime",
          "type": "uint256"
        },
        {
          "internalType": "int32",
          "name": "r",
          "type": "int32"
        }
      ],
      "name": "calInterest",
      "outputs": [
        {
          "internalType": "uint256",
          "name": "",
          "type": "uint256"
        }
      ],
      "stateMutability": "pure",
      "type": "function"
    },
    {
      "inputs": [],
      "name": "decimals",
      "outputs": [
        {
          "internalType": "uint8",
          "name": "",
          "type": "uint8"
        }
      ],
      "stateMutability": "view",
      "type": "function"
    },
    {
      "inputs": [
        {
          "internalType": "address",
          "name": "spender",
          "type": "address"
        },
        {
          "internalType": "uint256",
          "name": "subtractedValue",
          "type": "uint256"
        }
      ],
      "name": "decreaseAllowance",
      "outputs": [
        {
          "internalType": "bool",
          "name": "",
          "type": "bool"
        }
      ],
      "stateMutability": "nonpayable",
      "type": "function"
    },
    {
      "inputs": [
        {
          "internalType": "uint256",
          "name": "amount",
          "type": "uint256"
        }
      ],
      "name": "deposit",
      "outputs": [],
      "stateMutability": "nonpayable",
      "type": "function"
    },
    {
      "inputs": [],
      "name": "getDaoR",
      "outputs": [
        {
          "internalType": "int256",
          "name": "",
          "type": "int256"
        }
      ],
      "stateMutability": "view",
      "type": "function"
    },
    {
      "inputs": [],
      "name": "getInterestRate",
      "outputs": [
        {
          "internalType": "int256",
          "name": "",
          "type": "int256"
        }
      ],
      "stateMutability": "view",
      "type": "function"
    },
    {
      "inputs": [
        {
          "internalType": "address",
          "name": "spender",
          "type": "address"
        },
        {
          "internalType": "uint256",
          "name": "addedValue",
          "type": "uint256"
        }
      ],
      "name": "increaseAllowance",
      "outputs": [
        {
          "internalType": "bool",
          "name": "",
          "type": "bool"
        }
      ],
      "stateMutability": "nonpayable",
      "type": "function"
    },
    {
      "inputs": [],
      "name": "initialize",
      "outputs": [],
      "stateMutability": "nonpayable",
      "type": "function"
    },
    {
      "inputs": [],
      "name": "name",
      "outputs": [
        {
          "internalType": "string",
          "name": "",
          "type": "string"
        }
      ],
      "stateMutability": "view",
      "type": "function"
    },
    {
      "inputs": [],
      "name": "owner",
      "outputs": [
        {
          "internalType": "address",
          "name": "",
          "type": "address"
        }
      ],
      "stateMutability": "view",
      "type": "function"
    },
    {
      "inputs": [],
      "name": "proxiableUUID",
      "outputs": [
        {
          "internalType": "bytes32",
          "name": "",
          "type": "bytes32"
        }
      ],
      "stateMutability": "view",
      "type": "function"
    },
    {
      "inputs": [],
      "name": "renounceOwnership",
      "outputs": [],
      "stateMutability": "nonpayable",
      "type": "function"
    },
    {
      "inputs": [
        {
          "internalType": "address",
          "name": "coin",
          "type": "address"
        }
      ],
      "name": "setAddress",
      "outputs": [],
      "stateMutability": "nonpayable",
      "type": "function"
    },
    {
      "inputs": [
        {
          "internalType": "int32",
          "name": "r",
          "type": "int32"
        },
        {
          "internalType": "int32",
          "name": "daoR",
          "type": "int32"
        }
      ],
      "name": "setLevels",
      "outputs": [],
      "stateMutability": "nonpayable",
      "type": "function"
    },
    {
      "inputs": [
        {
          "internalType": "string",
          "name": "newName",
          "type": "string"
        },
        {
          "internalType": "string",
          "name": "newSymbol",
          "type": "string"
        }
      ],
      "name": "setNameAndSymbol",
      "outputs": [],
      "stateMutability": "nonpayable",
      "type": "function"
    },
    {
      "inputs": [],
      "name": "symbol",
      "outputs": [
        {
          "internalType": "string",
          "name": "",
          "type": "string"
        }
      ],
      "stateMutability": "view",
      "type": "function"
    },
    {
      "inputs": [
        {
          "internalType": "address",
          "name": "account",
          "type": "address"
        }
      ],
      "name": "syncDeposit",
      "outputs": [],
      "stateMutability": "nonpayable",
      "type": "function"
    },
    {
      "inputs": [],
      "name": "totalSupply",
      "outputs": [
        {
          "internalType": "uint256",
          "name": "",
          "type": "uint256"
        }
      ],
      "stateMutability": "view",
      "type": "function"
    },
    {
      "inputs": [
        {
          "internalType": "address",
          "name": "to",
          "type": "address"
        },
        {
          "internalType": "uint256",
          "name": "amount",
          "type": "uint256"
        }
      ],
      "name": "transfer",
      "outputs": [
        {
          "internalType": "bool",
          "name": "",
          "type": "bool"
        }
      ],
      "stateMutability": "nonpayable",
      "type": "function"
    },
    {
      "inputs": [
        {
          "internalType": "address",
          "name": "from",
          "type": "address"
        },
        {
          "internalType": "address",
          "name": "to",
          "type": "address"
        },
        {
          "internalType": "uint256",
          "name": "amount",
          "type": "uint256"
        }
      ],
      "name": "transferFrom",
      "outputs": [
        {
          "internalType": "bool",
          "name": "",
          "type": "bool"
        }
      ],
      "stateMutability": "nonpayable",
      "type": "function"
    },
    {
      "inputs": [
        {
          "internalType": "address",
          "name": "newOwner",
          "type": "address"
        }
      ],
      "name": "transferOwnership",
      "outputs": [],
      "stateMutability": "nonpayable",
      "type": "function"
    },
    {
      "inputs": [
        {
          "internalType": "address",
          "name": "newImplementation",
          "type": "address"
        }
      ],
      "name": "upgradeTo",
      "outputs": [],
      "stateMutability": "nonpayable",
      "type": "function"
    },
    {
      "inputs": [
        {
          "internalType": "address",
          "name": "newImplementation",
          "type": "address"
        },
        {
          "internalType": "bytes",
          "name": "data",
          "type": "bytes"
        }
      ],
      "name": "upgradeToAndCall",
      "outputs": [],
      "stateMutability": "payable",
      "type": "function"
    },
    {
      "inputs": [
        {
          "internalType": "uint256",
          "name": "amount",
          "type": "uint256"
        }
      ],
      "name": "withdraw",
      "outputs": [],
      "stateMutability": "nonpayable",
      "type": "function"
    },
    {
      "inputs": [],
      "name": "withdrawAll",
      "outputs": [],
      "stateMutability": "nonpayable",
      "type": "function"
    }
  ],
  "bytecode": "0x60a0604052306080523480156200001557600080fd5b506200002062000026565b620000e7565b600054610100900460ff1615620000935760405162461bcd60e51b815260206004820152602760248201527f496e697469616c697a61626c653a20636f6e747261637420697320696e697469604482015266616c697a696e6760c81b606482015260840160405180910390fd5b60005460ff90811614620000e5576000805460ff191660ff9081179091556040519081527f7f26b83ff96e1f2b6a682f133852f6798a09c465da95921460cefb38474024989060200160405180910390a15b565b6080516125396200011f600039600081816107ca0152818161080a015281816108cb0152818161090b015261099a01526125396000f3fe6080604052600436106101c25760003560e01c8063715018a6116100f7578063a9059cbb11610095578063e0646ba111610064578063e0646ba1146104c6578063e30081a0146104e6578063ed8f3f3914610506578063f2fde38b1461052657600080fd5b8063a9059cbb14610446578063b6b55f2514610466578063c9923eae14610486578063dd62ed3e146104a657600080fd5b8063853828b6116100d1578063853828b6146103d45780638da5cb5b146103e957806395d89b4114610411578063a457c2d71461042657600080fd5b8063715018a61461038a578063794f46ce1461039f5780638129fc1c146103bf57600080fd5b8063395093511161016457806352d1902d1161013e57806352d1902d146103155780635a4462151461032a578063651237371461034a57806370a082311461036a57600080fd5b806339509351146102ca5780634f1ef286146102ea5780635257b566146102fd57600080fd5b806323b872dd116101a057806323b872dd146102415780632e1a7d4d14610261578063313ce567146102835780633659cfe6146102aa57600080fd5b806306fdde03146101c7578063095ea7b3146101f257806318160ddd14610222575b600080fd5b3480156101d357600080fd5b506101dc610546565b6040516101e99190611e56565b60405180910390f35b3480156101fe57600080fd5b5061021261020d366004611ea5565b6105d8565b60405190151581526020016101e9565b34801561022e57600080fd5b506035545b6040519081526020016101e9565b34801561024d57600080fd5b5061021261025c366004611ecf565b6105f2565b34801561026d57600080fd5b5061028161027c366004611f0b565b610616565b005b34801561028f57600080fd5b50610298610742565b60405160ff90911681526020016101e9565b3480156102b657600080fd5b506102816102c5366004611f24565b6107c0565b3480156102d657600080fd5b506102126102e5366004611ea5565b61089f565b6102816102f8366004611fcb565b6108c1565b34801561030957600080fd5b5060fd5460030b610233565b34801561032157600080fd5b5061023361098d565b34801561033657600080fd5b5061028161034536600461204d565b610a40565b34801561035657600080fd5b5060fd54640100000000900460030b610233565b34801561037657600080fd5b50610233610385366004611f24565b610a66565b34801561039657600080fd5b50610281610ac7565b3480156103ab57600080fd5b506102336103ba3660046120b9565b610adb565b3480156103cb57600080fd5b50610281610b2d565b3480156103e057600080fd5b50610281610cfd565b3480156103f557600080fd5b506065546040516001600160a01b0390911681526020016101e9565b34801561041d57600080fd5b506101dc610db9565b34801561043257600080fd5b50610212610441366004611ea5565b610dc8565b34801561045257600080fd5b50610212610461366004611ea5565b610e43565b34801561047257600080fd5b50610281610481366004611f0b565b610e51565b34801561049257600080fd5b506102816104a1366004611f24565b610f06565b3480156104b257600080fd5b506102336104c13660046120f8565b611152565b3480156104d257600080fd5b506102816104e136600461212b565b61117d565b3480156104f257600080fd5b50610281610501366004611f24565b6111b5565b34801561051257600080fd5b506102336105213660046120b9565b6111ee565b34801561053257600080fd5b50610281610541366004611f24565b61123f565b606060fc805461055590612155565b80601f016020809104026020016040519081016040528092919081815260200182805461058190612155565b80156105ce5780601f106105a3576101008083540402835291602001916105ce565b820191906000526020600020905b8154815290600101906020018083116105b157829003601f168201915b5050505050905090565b6000336105e68185856112b5565b60019150505b92915050565b6000336106008582856113d9565b61060b85858561144d565b506001949350505050565b6000811161063f5760405162461bcd60e51b815260040161063690612189565b60405180910390fd5b61064833610f06565b33600090815260336020526040902054818110156106b85760405162461bcd60e51b815260206004820152602760248201527f616d6f756e74206d757374206265206c657373207468616e206465706f73697460448201526608185b5bdd5b9d60ca1b6064820152608401610636565b60fd5460405163a9059cbb60e01b815233600482015260248101849052600160401b9091046001600160a01b03169063a9059cbb906044016020604051808303816000875af115801561070f573d6000803e3d6000fd5b505050506040513d601f19601f8201168201806040525081019061073391906121c0565b5061073e338361161c565b5050565b600060fd60089054906101000a90046001600160a01b03166001600160a01b031663313ce5676040518163ffffffff1660e01b8152600401602060405180830381865afa158015610797573d6000803e3d6000fd5b505050506040513d601f19601f820116820180604052508101906107bb91906121e2565b905090565b6001600160a01b037f00000000000000000000000000000000000000000000000000000000000000001630036108085760405162461bcd60e51b815260040161063690612205565b7f00000000000000000000000000000000000000000000000000000000000000006001600160a01b03166108516000805160206124bd833981519152546001600160a01b031690565b6001600160a01b0316146108775760405162461bcd60e51b815260040161063690612251565b61088081611771565b6040805160008082526020820190925261089c91839190611779565b50565b6000336105e68185856108b28383611152565b6108bc91906122b3565b6112b5565b6001600160a01b037f00000000000000000000000000000000000000000000000000000000000000001630036109095760405162461bcd60e51b815260040161063690612205565b7f00000000000000000000000000000000000000000000000000000000000000006001600160a01b03166109526000805160206124bd833981519152546001600160a01b031690565b6001600160a01b0316146109785760405162461bcd60e51b815260040161063690612251565b61098182611771565b61073e82826001611779565b6000306001600160a01b037f00000000000000000000000000000000000000000000000000000000000000001614610a2d5760405162461bcd60e51b815260206004820152603860248201527f555550535570677261646561626c653a206d757374206e6f742062652063616c60448201527f6c6564207468726f7567682064656c656761746563616c6c00000000000000006064820152608401610636565b506000805160206124bd83398151915290565b610a486118e4565b60fc610a548382612314565b5060fb610a618282612314565b505050565b6001600160a01b0381166000908152603360205260408120548015610ab8576001600160a01b038316600090815260fe602052604090205460fd54610ab1918391429060030b610adb565b9392505050565b50600092915050565b50919050565b610acf6118e4565b610ad9600061193e565b565b600080610aea868686866111ee565b905060008360030b1315610b0a57610b0281876122b3565b915050610b25565b808611610b1b576000915050610b25565b610b0281876123d4565b949350505050565b600054610100900460ff1615808015610b4d5750600054600160ff909116105b80610b675750303b158015610b67575060005460ff166001145b610bca5760405162461bcd60e51b815260206004820152602e60248201527f496e697469616c697a61626c653a20636f6e747261637420697320616c72656160448201526d191e481a5b9a5d1a585b1a5e995960921b6064820152608401610636565b6000805460ff191660011790558015610bed576000805461ff0019166101001790555b610c196040518060200160405280600081525060405180602001604052806000815250620f4240611990565b610c216119c2565b610c296119f1565b60408051808201909152600d81526c13995e1d5cc811195c1bdcda5d609a1b602082015260fc90610c5a9082612314565b506040805180820190915260078152660c8cae0de9c8ab60cb1b602082015260fb90610c869082612314565b5060fd80546001600160e01b0319167b92211b6b68a39f4f68e722f3a3a4810a2ebc83830000000a000001f4179055801561089c576000805461ff0019169055604051600181527f7f26b83ff96e1f2b6a682f133852f6798a09c465da95921460cefb38474024989060200160405180910390a150565b610d0633610f06565b3360009081526033602052604090205480610d335760405162461bcd60e51b815260040161063690612189565b60fd5460405163a9059cbb60e01b815233600482015260248101839052600160401b9091046001600160a01b03169063a9059cbb906044016020604051808303816000875af1158015610d8a573d6000803e3d6000fd5b505050506040513d601f19601f82011682018060405250810190610dae91906121c0565b5061089c338261161c565b606060fb805461055590612155565b60003381610dd68286611152565b905083811015610e365760405162461bcd60e51b815260206004820152602560248201527f45524332303a2064656372656173656420616c6c6f77616e63652062656c6f77604482015264207a65726f60d81b6064820152608401610636565b61060b82868684036112b5565b6000336105e681858561144d565b60008111610e715760405162461bcd60e51b815260040161063690612189565b610e7a33610f06565b60fd546040516323b872dd60e01b815233600482015230602482015260448101839052600160401b9091046001600160a01b0316906323b872dd906064016020604051808303816000875af1158015610ed7573d6000803e3d6000fd5b505050506040513d601f19601f82011682018060405250810190610efb91906121c0565b5061089c3382611a18565b6001600160a01b03811660009081526033602090815260408083205460fe9092529091208054429091558115610a615760fd54600090610f4e9084908490429060030b610adb565b9050808310156110bd5760fd54600160401b90046001600160a01b0316634208b18930610f7b86856123d4565b6040516001600160e01b031960e085901b1681526001600160a01b0390921660048301526024820152604401600060405180830381600087803b158015610fc157600080fd5b505af1158015610fd5573d6000803e3d6000fd5b50505050610fee848483610fe991906123d4565b611a18565b60fd54600064010000000090910460030b13156110b857600061102284844260fd60049054906101000a900460030b6111ee565b905080156110b65760fd546001600160a01b03600160401b90910416634208b1896110556065546001600160a01b031690565b6040516001600160e01b031960e084901b1681526001600160a01b03909116600482015260248101849052604401600060405180830381600087803b15801561109d57600080fd5b505af11580156110b1573d6000803e3d6000fd5b505050505b505b61114c565b8083111561114c5760fd54600160401b90046001600160a01b03166342966c686110e783866123d4565b6040518263ffffffff1660e01b815260040161110591815260200190565b600060405180830381600087803b15801561111f57600080fd5b505af1158015611133573d6000803e3d6000fd5b5050505061114c84828561114791906123d4565b61161c565b50505050565b6001600160a01b03918216600090815260346020908152604080832093909416825291909152205490565b6111856118e4565b60fd805463ffffffff9283166401000000000267ffffffffffffffff199091169290931691909117919091179055565b6111bd6118e4565b60fd80546001600160a01b03909216600160401b0268010000000000000000600160e01b0319909216919091179055565b6000806112016301e133806127106123e7565b61120d8460030b611afd565b61121787876123d4565b61122190896123e7565b61122b91906123e7565b61123591906123fe565b9695505050505050565b6112476118e4565b6001600160a01b0381166112ac5760405162461bcd60e51b815260206004820152602660248201527f4f776e61626c653a206e6577206f776e657220697320746865207a65726f206160448201526564647265737360d01b6064820152608401610636565b61089c8161193e565b6001600160a01b0383166113175760405162461bcd60e51b8152602060048201526024808201527f45524332303a20617070726f76652066726f6d20746865207a65726f206164646044820152637265737360e01b6064820152608401610636565b6001600160a01b0382166113785760405162461bcd60e51b815260206004820152602260248201527f45524332303a20617070726f766520746f20746865207a65726f206164647265604482015261737360f01b6064820152608401610636565b6001600160a01b0383811660008181526034602090815260408083209487168084529482529182902085905590518481527f8c5be1e5ebec7d5bd14f71427d1e84f3dd0314c0f7b2291e5b200ac8c7c3b925910160405180910390a3505050565b60006113e58484611152565b9050600019811461114c57818110156114405760405162461bcd60e51b815260206004820152601d60248201527f45524332303a20696e73756666696369656e7420616c6c6f77616e63650000006044820152606401610636565b61114c84848484036112b5565b6001600160a01b0383166114b15760405162461bcd60e51b815260206004820152602560248201527f45524332303a207472616e736665722066726f6d20746865207a65726f206164604482015264647265737360d81b6064820152608401610636565b6001600160a01b0382166115135760405162461bcd60e51b815260206004820152602360248201527f45524332303a207472616e7366657220746f20746865207a65726f206164647260448201526265737360e81b6064820152608401610636565b61151e838383611b18565b6001600160a01b038316600090815260336020526040902054818110156115965760405162461bcd60e51b815260206004820152602660248201527f45524332303a207472616e7366657220616d6f756e7420657863656564732062604482015265616c616e636560d01b6064820152608401610636565b6001600160a01b03808516600090815260336020526040808220858503905591851681522080548301905560365482106110b857826001600160a01b0316846001600160a01b03167fddf252ad1be2c89b69c2b068fc378daa952ba7f163c4a11628f55a4df523b3ef8460405161160f91815260200190565b60405180910390a361114c565b6001600160a01b03821661167c5760405162461bcd60e51b815260206004820152602160248201527f45524332303a206275726e2066726f6d20746865207a65726f206164647265736044820152607360f81b6064820152608401610636565b61168882600083611b18565b6001600160a01b038216600090815260336020526040902054818110156116fc5760405162461bcd60e51b815260206004820152602260248201527f45524332303a206275726e20616d6f756e7420657863656564732062616c616e604482015261636560f01b6064820152608401610636565b6001600160a01b038316600090815260336020526040902082820390556035805483900390556036548210610a61576040518281526000906001600160a01b038516907fddf252ad1be2c89b69c2b068fc378daa952ba7f163c4a11628f55a4df523b3ef9060200160405180910390a3505050565b61089c6118e4565b7f4910fdfa16fed3260ed0e7147f7cc6da11a60208b5b9406d12a635614ffd91435460ff16156117ac57610a6183611b92565b826001600160a01b03166352d1902d6040518163ffffffff1660e01b8152600401602060405180830381865afa925050508015611806575060408051601f3d908101601f1916820190925261180391810190612420565b60015b6118695760405162461bcd60e51b815260206004820152602e60248201527f45524331393637557067726164653a206e657720696d706c656d656e7461746960448201526d6f6e206973206e6f74205555505360901b6064820152608401610636565b6000805160206124bd83398151915281146118d85760405162461bcd60e51b815260206004820152602960248201527f45524331393637557067726164653a20756e737570706f727465642070726f786044820152681a58589b195555525160ba1b6064820152608401610636565b50610a61838383611c2e565b6065546001600160a01b03163314610ad95760405162461bcd60e51b815260206004820181905260248201527f4f776e61626c653a2063616c6c6572206973206e6f7420746865206f776e65726044820152606401610636565b606580546001600160a01b038381166001600160a01b0319831681179093556040519116919082907f8be0079c531659141344cd1fd0a4f28419497f9722a3daafe3b4186f6b6457e090600090a35050565b600054610100900460ff166119b75760405162461bcd60e51b815260040161063690612439565b610a61838383611c53565b600054610100900460ff166119e95760405162461bcd60e51b815260040161063690612439565b610ad9611c9b565b600054610100900460ff16610ad95760405162461bcd60e51b815260040161063690612439565b6001600160a01b038216611a6e5760405162461bcd60e51b815260206004820152601f60248201527f45524332303a206d696e7420746f20746865207a65726f2061646472657373006044820152606401610636565b611a7a60008383611b18565b8060356000828254611a8c91906122b3565b90915550506001600160a01b0382166000908152603360205260409020805482019055603654811061073e576040518181526001600160a01b038316906000907fddf252ad1be2c89b69c2b068fc378daa952ba7f163c4a11628f55a4df523b3ef9060200160405180910390a35050565b6000808213611b1457611b0f82612484565b6105ec565b5090565b6001600160a01b03831615801590611b4757506001600160a01b038316600090815260fe602052604090205442115b15611b5557611b5583610f06565b6001600160a01b03821615801590611b8457506001600160a01b038216600090815260fe602052604090205442115b15610a6157610a6182610f06565b6001600160a01b0381163b611bff5760405162461bcd60e51b815260206004820152602d60248201527f455243313936373a206e657720696d706c656d656e746174696f6e206973206e60448201526c1bdd08184818dbdb9d1c9858dd609a1b6064820152608401610636565b6000805160206124bd83398151915280546001600160a01b0319166001600160a01b0392909216919091179055565b611c3783611ccb565b600082511180611c445750805b15610a615761114c8383611d0b565b600054610100900460ff16611c7a5760405162461bcd60e51b815260040161063690612439565b6037611c868482612314565b506038611c938382612314565b506036555050565b600054610100900460ff16611cc25760405162461bcd60e51b815260040161063690612439565b610ad93361193e565b611cd481611b92565b6040516001600160a01b038216907fbc7cd75a20ee27fd9adebab32041f755214dbc6bffa90cc0225b39da2e5c2d3b90600090a250565b6060610ab183836040518060600160405280602781526020016124dd602791396060600080856001600160a01b031685604051611d4891906124a0565b600060405180830381855af49150503d8060008114611d83576040519150601f19603f3d011682016040523d82523d6000602084013e611d88565b606091505b50915091506112358683838760608315611e03578251600003611dfc576001600160a01b0385163b611dfc5760405162461bcd60e51b815260206004820152601d60248201527f416464726573733a2063616c6c20746f206e6f6e2d636f6e74726163740000006044820152606401610636565b5081610b25565b610b258383815115611e185781518083602001fd5b8060405162461bcd60e51b81526004016106369190611e56565b60005b83811015611e4d578181015183820152602001611e35565b50506000910152565b6020815260008251806020840152611e75816040850160208701611e32565b601f01601f19169190910160400192915050565b80356001600160a01b0381168114611ea057600080fd5b919050565b60008060408385031215611eb857600080fd5b611ec183611e89565b946020939093013593505050565b600080600060608486031215611ee457600080fd5b611eed84611e89565b9250611efb60208501611e89565b9150604084013590509250925092565b600060208284031215611f1d57600080fd5b5035919050565b600060208284031215611f3657600080fd5b610ab182611e89565b634e487b7160e01b600052604160045260246000fd5b600067ffffffffffffffff80841115611f7057611f70611f3f565b604051601f8501601f19908116603f01168101908282118183101715611f9857611f98611f3f565b81604052809350858152868686011115611fb157600080fd5b858560208301376000602087830101525050509392505050565b60008060408385031215611fde57600080fd5b611fe783611e89565b9150602083013567ffffffffffffffff81111561200357600080fd5b8301601f8101851361201457600080fd5b61202385823560208401611f55565b9150509250929050565b600082601f83011261203e57600080fd5b610ab183833560208501611f55565b6000806040838503121561206057600080fd5b823567ffffffffffffffff8082111561207857600080fd5b6120848683870161202d565b9350602085013591508082111561209a57600080fd5b506120238582860161202d565b8035600381900b8114611ea057600080fd5b600080600080608085870312156120cf57600080fd5b8435935060208501359250604085013591506120ed606086016120a7565b905092959194509250565b6000806040838503121561210b57600080fd5b61211483611e89565b915061212260208401611e89565b90509250929050565b6000806040838503121561213e57600080fd5b612147836120a7565b9150612122602084016120a7565b600181811c9082168061216957607f821691505b602082108103610ac157634e487b7160e01b600052602260045260246000fd5b6020808252601d908201527f616d6f756e74206d7573742062652067726561746572207468616e2030000000604082015260600190565b6000602082840312156121d257600080fd5b81518015158114610ab157600080fd5b6000602082840312156121f457600080fd5b815160ff81168114610ab157600080fd5b6020808252602c908201527f46756e6374696f6e206d7573742062652063616c6c6564207468726f7567682060408201526b19195b1959d85d1958d85b1b60a21b606082015260800190565b6020808252602c908201527f46756e6374696f6e206d7573742062652063616c6c6564207468726f7567682060408201526b6163746976652070726f787960a01b606082015260800190565b634e487b7160e01b600052601160045260246000fd5b808201808211156105ec576105ec61229d565b601f821115610a6157600081815260208120601f850160051c810160208610156122ed5750805b601f850160051c820191505b8181101561230c578281556001016122f9565b505050505050565b815167ffffffffffffffff81111561232e5761232e611f3f565b6123428161233c8454612155565b846122c6565b602080601f831160018114612377576000841561235f5750858301515b600019600386901b1c1916600185901b17855561230c565b600085815260208120601f198616915b828110156123a657888601518255948401946001909101908401612387565b50858210156123c45787850151600019600388901b60f8161c191681555b5050505050600190811b01905550565b818103818111156105ec576105ec61229d565b80820281158282048414176105ec576105ec61229d565b60008261241b57634e487b7160e01b600052601260045260246000fd5b500490565b60006020828403121561243257600080fd5b5051919050565b6020808252602b908201527f496e697469616c697a61626c653a20636f6e7472616374206973206e6f74206960408201526a6e697469616c697a696e6760a81b606082015260800190565b6000600160ff1b82016124995761249961229d565b5060000390565b600082516124b2818460208701611e32565b919091019291505056fe360894a13ba1a3210667c828492db98dca3e2076cc3735a920a3ca505d382bbc416464726573733a206c6f772d6c6576656c2064656c65676174652063616c6c206661696c6564a26469706673582212200acf9ae3173b2685eceaa45783badd2fa173efccf258dc4c3bedb810256feb8e64736f6c63430008110033",
  "linkReferences": {},
  "deployedLinkReferences": {}
}