{
  "_format": "hh-sol-artifact-1",
  "contractName": "POWMintProtocol",
  "sourceName": "contracts/StableCoin.sol",
  "abi": [
    {
      "inputs": [],
      "stateMutability": "nonpayable",
      "type": "constructor"
    },
    {
      "anonymous": false,
      "inputs": [
        {
          "indexed": false,
          "internalType": "address",
          "name": "previousAdmin",
          "type": "address"
        },
        {
          "indexed": false,
          "internalType": "address",
          "name": "newAdmin",
          "type": "address"
        }
      ],
      "name": "AdminChanged",
      "type": "event"
    },
    {
      "anonymous": false,
      "inputs": [
        {
          "indexed": true,
          "internalType": "address",
          "name": "beacon",
          "type": "address"
        }
      ],
      "name": "BeaconUpgraded",
      "type": "event"
    },
    {
      "anonymous": false,
      "inputs": [
        {
          "indexed": false,
          "internalType": "uint8",
          "name": "version",
          "type": "uint8"
        }
      ],
      "name": "Initialized",
      "type": "event"
    },
    {
      "anonymous": false,
      "inputs": [
        {
          "indexed": true,
          "internalType": "address",
          "name": "previousOwner",
          "type": "address"
        },
        {
          "indexed": true,
          "internalType": "address",
          "name": "newOwner",
          "type": "address"
        }
      ],
      "name": "OwnershipTransferred",
      "type": "event"
    },
    {
      "anonymous": false,
      "inputs": [
        {
          "indexed": true,
          "internalType": "address",
          "name": "implementation",
          "type": "address"
        }
      ],
      "name": "Upgraded",
      "type": "event"
    },
    {
      "inputs": [
        {
          "internalType": "address",
          "name": "acc",
          "type": "address"
        },
        {
          "internalType": "uint256",
          "name": "mint_nounce",
          "type": "uint256"
        }
      ],
      "name": "checkMint",
      "outputs": [
        {
          "internalType": "bool",
          "name": "",
          "type": "bool"
        },
        {
          "internalType": "uint256",
          "name": "",
          "type": "uint256"
        }
      ],
      "stateMutability": "view",
      "type": "function"
    },
    {
      "inputs": [],
      "name": "getDifficultyLevel",
      "outputs": [
        {
          "internalType": "uint256",
          "name": "",
          "type": "uint256"
        }
      ],
      "stateMutability": "view",
      "type": "function"
    },
    {
      "inputs": [],
      "name": "getMintControl",
      "outputs": [
        {
          "internalType": "uint256",
          "name": "mintSize",
          "type": "uint256"
        },
        {
          "internalType": "uint256",
          "name": "adjustInterval",
          "type": "uint256"
        },
        {
          "internalType": "uint256",
          "name": "targetMintAmount",
          "type": "uint256"
        }
      ],
      "stateMutability": "view",
      "type": "function"
    },
    {
      "inputs": [],
      "name": "getMintParams",
      "outputs": [
        {
          "internalType": "uint256",
          "name": "nounce",
          "type": "uint256"
        },
        {
          "internalType": "uint256",
          "name": "blockNumberV",
          "type": "uint256"
        },
        {
          "internalType": "uint256",
          "name": "supplyV",
          "type": "uint256"
        },
        {
          "internalType": "uint256",
          "name": "targetLevel",
          "type": "uint256"
        }
      ],
      "stateMutability": "view",
      "type": "function"
    },
    {
      "inputs": [
        {
          "internalType": "uint256",
          "name": "nounce",
          "type": "uint256"
        },
        {
          "internalType": "uint256",
          "name": "blockNumberV",
          "type": "uint256"
        },
        {
          "internalType": "uint256",
          "name": "supplyV",
          "type": "uint256"
        },
        {
          "internalType": "address",
          "name": "acc",
          "type": "address"
        },
        {
          "internalType": "uint256",
          "name": "mint_nounce",
          "type": "uint256"
        }
      ],
      "name": "hashParams",
      "outputs": [
        {
          "internalType": "bytes",
          "name": "characterisk",
          "type": "bytes"
        },
        {
          "internalType": "uint256",
          "name": "hashValue",
          "type": "uint256"
        }
      ],
      "stateMutability": "pure",
      "type": "function"
    },
    {
      "inputs": [],
      "name": "initialize",
      "outputs": [],
      "stateMutability": "nonpayable",
      "type": "function"
    },
    {
      "inputs": [
        {
          "internalType": "uint256",
          "name": "mint_nounce",
          "type": "uint256"
        }
      ],
      "name": "mint",
      "outputs": [],
      "stateMutability": "nonpayable",
      "type": "function"
    },
    {
      "inputs": [
        {
          "internalType": "address",
          "name": "account",
          "type": "address"
        },
        {
          "internalType": "uint256",
          "name": "mint_nounce",
          "type": "uint256"
        }
      ],
      "name": "mintFor",
      "outputs": [],
      "stateMutability": "nonpayable",
      "type": "function"
    },
    {
      "inputs": [],
      "name": "owner",
      "outputs": [
        {
          "internalType": "address",
          "name": "",
          "type": "address"
        }
      ],
      "stateMutability": "view",
      "type": "function"
    },
    {
      "inputs": [],
      "name": "proxiableUUID",
      "outputs": [
        {
          "internalType": "bytes32",
          "name": "",
          "type": "bytes32"
        }
      ],
      "stateMutability": "view",
      "type": "function"
    },
    {
      "inputs": [],
      "name": "renounceOwnership",
      "outputs": [],
      "stateMutability": "nonpayable",
      "type": "function"
    },
    {
      "inputs": [
        {
          "internalType": "uint256",
          "name": "mintSize",
          "type": "uint256"
        },
        {
          "internalType": "uint256",
          "name": "adjustInterval",
          "type": "uint256"
        },
        {
          "internalType": "uint256",
          "name": "targetMintAmount",
          "type": "uint256"
        }
      ],
      "name": "setMintControl",
      "outputs": [],
      "stateMutability": "nonpayable",
      "type": "function"
    },
    {
      "inputs": [
        {
          "internalType": "address",
          "name": "coinAddress",
          "type": "address"
        },
        {
          "internalType": "address",
          "name": "priceInterface",
          "type": "address"
        }
      ],
      "name": "setUndAddress",
      "outputs": [],
      "stateMutability": "nonpayable",
      "type": "function"
    },
    {
      "inputs": [
        {
          "internalType": "address",
          "name": "newOwner",
          "type": "address"
        }
      ],
      "name": "transferOwnership",
      "outputs": [],
      "stateMutability": "nonpayable",
      "type": "function"
    },
    {
      "inputs": [
        {
          "internalType": "address",
          "name": "newImplementation",
          "type": "address"
        }
      ],
      "name": "upgradeTo",
      "outputs": [],
      "stateMutability": "nonpayable",
      "type": "function"
    },
    {
      "inputs": [
        {
          "internalType": "address",
          "name": "newImplementation",
          "type": "address"
        },
        {
          "internalType": "bytes",
          "name": "data",
          "type": "bytes"
        }
      ],
      "name": "upgradeToAndCall",
      "outputs": [],
      "stateMutability": "payable",
      "type": "function"
    }
  ],
  "bytecode": "0x60a06040523060805234801561001457600080fd5b5061001d610022565b6100e1565b600054610100900460ff161561008e5760405162461bcd60e51b815260206004820152602760248201527f496e697469616c697a61626c653a20636f6e747261637420697320696e697469604482015266616c697a696e6760c81b606482015260840160405180910390fd5b60005460ff908116146100df576000805460ff191660ff9081179091556040519081527f7f26b83ff96e1f2b6a682f133852f6798a09c465da95921460cefb38474024989060200160405180910390a15b565b6080516117db6101266000396000818161033901528181610382015281816104100152818161045001528181610665015281816106a5015261072101526117db6000f3fe6080604052600436106100f35760003560e01c80638129fc1c1161008a578063d1e7f79c11610059578063d1e7f79c1461027b578063da1919b3146102b0578063e2898bd5146102d0578063f2fde38b1461030757600080fd5b80638129fc1c146101fe5780638da5cb5b14610213578063a0712d681461023b578063b36ad8631461025b57600080fd5b80634f1ef286116100c65780634f1ef2861461019357806352d1902d146101a65780635bd05716146101bb578063715018a6146101e957600080fd5b80630a079767146100f85780631880f3d71461012e5780633659cfe61461015057806339aaffe914610170575b600080fd5b34801561010457600080fd5b5060cf5460ce5460cd54604080519384526020840192909252908201526060015b60405180910390f35b34801561013a57600080fd5b5061014e61014936600461121e565b610327565b005b34801561015c57600080fd5b5061014e61016b366004611251565b610406565b34801561017c57600080fd5b506101856104ce565b604051908152602001610125565b61014e6101a1366004611282565b61065b565b3480156101b257600080fd5b50610185610714565b3480156101c757600080fd5b506101db6101d6366004611344565b6107c7565b6040516101259291906113db565b3480156101f557600080fd5b5061014e610824565b34801561020a57600080fd5b5061014e610838565b34801561021f57600080fd5b506033546040516001600160a01b039091168152602001610125565b34801561024757600080fd5b5061014e6102563660046113fd565b610970565b34801561026757600080fd5b5061014e610276366004611416565b61097a565b34801561028757600080fd5b50610290610990565b604080519485526020850193909352918301526060820152608001610125565b3480156102bc57600080fd5b5061014e6102cb366004611442565b610ac6565b3480156102dc57600080fd5b506102f06102eb366004611442565b610bf6565b604080519215158352602083019190915201610125565b34801561031357600080fd5b5061014e610322366004611251565b610c43565b61032f610cb9565b6001600160a01b037f00000000000000000000000000000000000000000000000000000000000000001630036103805760405162461bcd60e51b81526004016103779061146c565b60405180910390fd5b7f00000000000000000000000000000000000000000000000000000000000000006001600160a01b03166103b2610d13565b6001600160a01b0316146103d85760405162461bcd60e51b8152600401610377906114b8565b60c980546001600160a01b039384166001600160a01b03199182161790915560ca8054929093169116179055565b6001600160a01b037f000000000000000000000000000000000000000000000000000000000000000016300361044e5760405162461bcd60e51b81526004016103779061146c565b7f00000000000000000000000000000000000000000000000000000000000000006001600160a01b0316610480610d13565b6001600160a01b0316146104a65760405162461bcd60e51b8152600401610377906114b8565b6104af81610d2f565b604080516000808252602082019092526104cb91839190610d37565b50565b60008060ca60009054906101000a90046001600160a01b03166001600160a01b03166358c0994a6040518163ffffffff1660e01b8152600401602060405180830381865afa158015610524573d6000803e3d6000fd5b505050506040513d601f19601f820116820180604052508101906105489190611504565b905060006105928260d254670de0b6b3a76400006105669190611533565b6105709190611560565b600260d25461057f9190611560565b60d25461058d906004611533565b610ea7565b905060ce5460d1546105a49190611574565b6000036106495760006301e1338060cb54426105c09190611588565b60cd546105cd9190611533565b6105d79190611560565b9050600060cf54826105e9919061159b565b60cf5460cc546105f9919061159b565b60d2546106069190611533565b6106109190611560565b9050610644816004610623866003611533565b61062d9190611560565b600461063a876005611533565b61058d9190611560565b925050505b610654816001610ec4565b9250505090565b6001600160a01b037f00000000000000000000000000000000000000000000000000000000000000001630036106a35760405162461bcd60e51b81526004016103779061146c565b7f00000000000000000000000000000000000000000000000000000000000000006001600160a01b03166106d5610d13565b6001600160a01b0316146106fb5760405162461bcd60e51b8152600401610377906114b8565b61070482610d2f565b61071082826001610d37565b5050565b6000306001600160a01b037f000000000000000000000000000000000000000000000000000000000000000016146107b45760405162461bcd60e51b815260206004820152603860248201527f555550535570677261646561626c653a206d757374206e6f742062652063616c60448201527f6c6564207468726f7567682064656c656761746563616c6c00000000000000006064820152608401610377565b5060008051602061175f83398151915290565b60408051602080820197909752808201959095526060808601949094529190921b6bffffffffffffffffffffffff191660808401526094808401929092528051808403909201825260b49092019091528051918101919091209091565b61082c610cb9565b6108366000610ede565b565b600054610100900460ff16158080156108585750600054600160ff909116105b806108725750303b158015610872575060005460ff166001145b6108d55760405162461bcd60e51b815260206004820152602e60248201527f496e697469616c697a61626c653a20636f6e747261637420697320616c72656160448201526d191e481a5b9a5d1a585b1a5e995960921b6064820152608401610377565b6000805460ff1916600117905580156108f8576000805461ff0019166101001790555b610900610f30565b610908610f5f565b4260cb55606460d2556305f5e10060cf55600a60ce556512309ce5400060cd5580156104cb576000805461ff0019169055604051600181527f7f26b83ff96e1f2b6a682f133852f6798a09c465da95921460cefb38474024989060200160405180910390a150565b6104cb3382610ac6565b610982610cb9565b60cf9290925560ce5560cd55565b60d154600080806109a361271043611560565b925060c960009054906101000a90046001600160a01b03166001600160a01b031663313ce5676040518163ffffffff1660e01b8152600401602060405180830381865afa1580156109f8573d6000803e3d6000fd5b505050506040513d601f19601f82011682018060405250810190610a1c91906115ae565b610a2790600a6116bc565b610a3390612710611533565b60c960009054906101000a90046001600160a01b03166001600160a01b03166318160ddd6040518163ffffffff1660e01b8152600401602060405180830381865afa158015610a86573d6000803e3d6000fd5b505050506040513d601f19601f82011682018060405250810190610aaa9190611504565b610ab49190611560565b9150610abe6104ce565b905090919293565b600080610ad38484610bf6565b9150915081610b325760405162461bcd60e51b815260206004820152602560248201527f6d696e74206661696c65642c20746172676574206c6576656c206e6f742072656044820152641858da195960da1b6064820152608401610377565b60c95460cf54604051634208b18960e01b81526001600160a01b0387811660048301526024820192909252911690634208b18990604401600060405180830381600087803b158015610b8357600080fd5b505af1158015610b97573d6000803e3d6000fd5b5050505060cf5460cc6000828254610baf919061159b565b909155505060ce5460d154610bc49190611574565b600003610bd5574260cb55600060cc555b60d18054906000610be5836116cb565b90915550504260d05560d255505050565b600080600080600080610c07610990565b93509350935093506000610c1e8585858c8c6107c7565b915060009050610c3083600019611560565b9091111599919850909650505050505050565b610c4b610cb9565b6001600160a01b038116610cb05760405162461bcd60e51b815260206004820152602660248201527f4f776e61626c653a206e6577206f776e657220697320746865207a65726f206160448201526564647265737360d01b6064820152608401610377565b6104cb81610ede565b6033546001600160a01b031633146108365760405162461bcd60e51b815260206004820181905260248201527f4f776e61626c653a2063616c6c6572206973206e6f7420746865206f776e65726044820152606401610377565b60008051602061175f833981519152546001600160a01b031690565b6104cb610cb9565b7f4910fdfa16fed3260ed0e7147f7cc6da11a60208b5b9406d12a635614ffd91435460ff1615610d6f57610d6a83610f86565b505050565b826001600160a01b03166352d1902d6040518163ffffffff1660e01b8152600401602060405180830381865afa925050508015610dc9575060408051601f3d908101601f19168201909252610dc691810190611504565b60015b610e2c5760405162461bcd60e51b815260206004820152602e60248201527f45524331393637557067726164653a206e657720696d706c656d656e7461746960448201526d6f6e206973206e6f74205555505360901b6064820152608401610377565b60008051602061175f8339815191528114610e9b5760405162461bcd60e51b815260206004820152602960248201527f45524331393637557067726164653a20756e737570706f727465642070726f786044820152681a58589b195555525160ba1b6064820152608401610377565b50610d6a838383611022565b6000610ebc610eb68585610ec4565b8361104d565b949350505050565b6000818311610ed35781610ed5565b825b90505b92915050565b603380546001600160a01b038381166001600160a01b0319831681179093556040519116919082907f8be0079c531659141344cd1fd0a4f28419497f9722a3daafe3b4186f6b6457e090600090a35050565b600054610100900460ff16610f575760405162461bcd60e51b8152600401610377906116e4565b61083661105c565b600054610100900460ff166108365760405162461bcd60e51b8152600401610377906116e4565b6001600160a01b0381163b610ff35760405162461bcd60e51b815260206004820152602d60248201527f455243313936373a206e657720696d706c656d656e746174696f6e206973206e60448201526c1bdd08184818dbdb9d1c9858dd609a1b6064820152608401610377565b60008051602061175f83398151915280546001600160a01b0319166001600160a01b0392909216919091179055565b61102b8361108c565b6000825111806110385750805b15610d6a5761104783836110cc565b50505050565b6000818310610ed35781610ed5565b600054610100900460ff166110835760405162461bcd60e51b8152600401610377906116e4565b61083633610ede565b61109581610f86565b6040516001600160a01b038216907fbc7cd75a20ee27fd9adebab32041f755214dbc6bffa90cc0225b39da2e5c2d3b90600090a250565b6060610ed5838360405180606001604052806027815260200161177f602791396060600080856001600160a01b031685604051611109919061172f565b600060405180830381855af49150503d8060008114611144576040519150601f19603f3d011682016040523d82523d6000602084013e611149565b606091505b509150915061115a86838387611164565b9695505050505050565b606083156111d35782516000036111cc576001600160a01b0385163b6111cc5760405162461bcd60e51b815260206004820152601d60248201527f416464726573733a2063616c6c20746f206e6f6e2d636f6e74726163740000006044820152606401610377565b5081610ebc565b610ebc83838151156111e85781518083602001fd5b8060405162461bcd60e51b8152600401610377919061174b565b80356001600160a01b038116811461121957600080fd5b919050565b6000806040838503121561123157600080fd5b61123a83611202565b915061124860208401611202565b90509250929050565b60006020828403121561126357600080fd5b610ed582611202565b634e487b7160e01b600052604160045260246000fd5b6000806040838503121561129557600080fd5b61129e83611202565b9150602083013567ffffffffffffffff808211156112bb57600080fd5b818501915085601f8301126112cf57600080fd5b8135818111156112e1576112e161126c565b604051601f8201601f19908116603f011681019083821181831017156113095761130961126c565b8160405282815288602084870101111561132257600080fd5b8260208601602083013760006020848301015280955050505050509250929050565b600080600080600060a0868803121561135c57600080fd5b85359450602086013593506040860135925061137a60608701611202565b949793965091946080013592915050565b60005b838110156113a657818101518382015260200161138e565b50506000910152565b600081518084526113c781602086016020860161138b565b601f01601f19169290920160200192915050565b6040815260006113ee60408301856113af565b90508260208301529392505050565b60006020828403121561140f57600080fd5b5035919050565b60008060006060848603121561142b57600080fd5b505081359360208301359350604090920135919050565b6000806040838503121561145557600080fd5b61145e83611202565b946020939093013593505050565b6020808252602c908201527f46756e6374696f6e206d7573742062652063616c6c6564207468726f7567682060408201526b19195b1959d85d1958d85b1b60a21b606082015260800190565b6020808252602c908201527f46756e6374696f6e206d7573742062652063616c6c6564207468726f7567682060408201526b6163746976652070726f787960a01b606082015260800190565b60006020828403121561151657600080fd5b5051919050565b634e487b7160e01b600052601160045260246000fd5b8082028115828204841417610ed857610ed861151d565b634e487b7160e01b600052601260045260246000fd5b60008261156f5761156f61154a565b500490565b6000826115835761158361154a565b500690565b81810381811115610ed857610ed861151d565b80820180821115610ed857610ed861151d565b6000602082840312156115c057600080fd5b815160ff811681146115d157600080fd5b9392505050565b600181815b808511156116135781600019048211156115f9576115f961151d565b8085161561160657918102915b93841c93908002906115dd565b509250929050565b60008261162a57506001610ed8565b8161163757506000610ed8565b816001811461164d576002811461165757611673565b6001915050610ed8565b60ff8411156116685761166861151d565b50506001821b610ed8565b5060208310610133831016604e8410600b8410161715611696575081810a610ed8565b6116a083836115d8565b80600019048211156116b4576116b461151d565b029392505050565b6000610ed560ff84168361161b565b6000600182016116dd576116dd61151d565b5060010190565b6020808252602b908201527f496e697469616c697a61626c653a20636f6e7472616374206973206e6f74206960408201526a6e697469616c697a696e6760a81b606082015260800190565b6000825161174181846020870161138b565b9190910192915050565b602081526000610ed560208301846113af56fe360894a13ba1a3210667c828492db98dca3e2076cc3735a920a3ca505d382bbc416464726573733a206c6f772d6c6576656c2064656c65676174652063616c6c206661696c6564a2646970667358221220949ffce149b1b429aea2eb5786f34cd866cbac63abec752eb3e3997b7618fce864736f6c63430008110033",
  "linkReferences": {},
  "deployedLinkReferences": {}
}